:020000040800F2
:10000000184E0020B93000081530000817300008DD
:10001000193000081B3000081D30000800000000E7
:100020000000000000000000000000005111000866
:100030001F30000800000000F9100008D12A000855
:10004000E5300008E9300008ED300008F130000824
:10005000F5300008F9300008FD30000801310008D3
:1000600005310008093100080D3100081131000880
:1000700015310008193100081D3100082131000830
:1000800025310008293100082D31000831310008E0
:1000900035310008393100083D3100084131000890
:1000A00045310008493100084D3100085131000840
:1000B00055310008593100085D31000861310008F0
:1000C00065310008693100086D31000871310008A0
:1000D0007531000879310008213000087D310008B1
:1000E0008131000885310008893100088D31000810
:1000F0009131000895310008993100089D310008C0
:10010000A1310008A5310008A9310008AD3100086F
:10011000B1310008B531000827300008B9310008B6
:10012000BD310008C1310008C5310008C9310008DF
:10013000CD310008D1310008D5310008D93100088F
:10014000DD310008E1310008E5310008E93100083F
:10015000ED310008F1310008F5310008F9310008EF
:10016000FD3100080132000805320008093200089C
:100170000D3200081132000815320008000000009E
:10018000193200081D320008F0B585B050260B9DCD
:1001900025B986F3118800F044FAFEE70C9C24B9D7
:1001A00086F3118800F03DFAFEE760270097DDF83E
:1001B00000E0BEF1600F04D086F3118800F031FA40
:1001C000FEE7009E25630026022584F85D5004AFFB
:1001D0000A9D039602940197009500F034F820469A
:1001E00000F078F8049805B0F0BD2DE9F843064614
:1001F000174684B088469946B80000F077FB0500A2
:100200001CD0602000F072FB040014D00020256395
:1002100084F85D00039002940D980C990190009170
:100220004B463A464146304600F00DF8204600F075
:1002300051F8012004E0284600F0E1FB4FF0FF30C8
:1002400005B0BDE8F0832DE9F0470A9F81460C46D2
:100250001546386B9A46A522A90000F01FFC396BA1
:1002600001EB8502101FC0084FEAC00808F0070024
:1002700007F1340554B10021625C6A54605C10B12E
:10028000491C1429F8D30020E87400E02870089E67
:10029000372E88BF3726099CFE62EE612862C6F1C0
:1002A0003806381D00F024FC07F1180000F020FC8F
:1002B0003F61BE617F6200206862002187F85C10A8
:1002C00052464946404600F04FFC386004B1276072
:1002D000BDE8F0872DE9F04100F06BF8DFF8045538
:1002E000DFF86485E86C401CE8641426A86A28BB23
:1002F000AC62E86C012829D1002706FB07F04044D6
:1003000000F0E9FB7F1C382FF7D305F1740000F0F3
:10031000E2FB05F18807384600F0DDFB284600F0D7
:10032000DAFB05F1140000F0D6FB05F1380000F00F
:10033000D2FB05F17400E8622F6307E0A86D28B9CD
:10034000E06AA96ACA6A904228BFAC62A86EE26AF3
:10035000401CA064696D914238BF6A65A866564327
:10036000211D08EB060000F0C6FB00F088FCA86D1C
:1003700030B100F0A3F903D200F077FA00F051F9A0
:10038000BDE8F08180B588B1DFF85824116F21B144
:1003900000F02EF900F045F9FEE7116F491C1167D6
:1003A000002100F06DFA00F044F808B900F034F9CB
:1003B00001BD044600F04ABC80B586B0002105911D
:1003C000049103AA04A905A800F0CEFC059804999D
:1003D00002900022009201910023039A0FF204512F
:1003E0000FF26130FFF7D0FE98B100F0C7FC50214A
:1003F000012810D181F3118800F013F9DFF8D0043F
:100400004FF0FF31C166012282650021016500F0D5
:10041000CDFB07B000BD10F1010FFAD181F31188B7
:1004200000F0FFF8FEE7DFF8A804016F491C016740
:10043000704770B5DFF8AC63306F0024002520B939
:1004400000F043F800F0EDF8FEE700F0FFFB306F3E
:10045000401E3067306F002836D1F06CD0B933E0E1
:10046000F068C46800F035F800F0BEF9E06A716D1C
:10047000814238BF70651423DFF858245843211D8A
:10048000104400F038FBE06AB16ACA6A904224BFA7
:100490000121316630680028E2D10CB100F089F901
:1004A000F46D44B100F01DF808B101203066641EFF
:1004B000F8D10020F065306E30B1DFF81C144FF039
:1004C0008050012500F0ACF8C8E1502181F311887B
:1004D000704704F1180000F034BBDFF8F403006D3E
:1004E00070472DE9F843DFF8FC72386F00260028CA
:1004F00052D13C6D641C3C6510D1F86A006820B193
:10050000FFF7E3FF00F08DF8FEE7F86A396BF96258
:100510003863786E401C786600F04BF9F86EDFF8AF
:10052000B49384424FF0140827D31FE0F96AC868D7
:10053000C568686884422DD3281D00F002FBA86AB4
:1005400018B105F1180000F0FCFAE86A796D8142F3
:1005500038BF786508FB00F0291D484400F0CBFA4D
:10056000E86AB96ACA6A904228BF0126F86A006838
:100570000028DBD14FF0FF31F966B86AC06A08FB8A
:1005800000F859F80810022928BF0126386E30B14A
:10059000012604E0F866F0E7F86D401CF86561E1BB
:1005A00010B5DFF84022106F10B10121116610BDA7
:1005B0001066516DDFF81C3300E0491E14244C43D3
:1005C000185930B90029F8D100F012F800F029F8D4
:1005D000FEE7181900F1080443685B684360A34212
:1005E00004BF5B6843604068C3689362516510BD97
:1005F000502080F31188704710B50C4620B9FFF7E2
:10060000F7FF00F00EF8FEE700F028F800F080FA9F
:100610002046BDE8104009E0DFF8BC124FF08050E2
:100620000860BFF34F8FBFF36F8F7047012100F059
:1006300027B938B50D46144620B9FFF7D9FFFFF7A3
:10064000F0FFFEE700F00AF800F055FA0CB14FF0A9
:10065000FF3521462846BDE8344011E1DFF870221D
:10066000936A03F11801704738B5C068C46824B9AB
:10067000FFF7BEFFFFF7D5FFFEE7FFF72AFFDFF822
:100680005052286F40B900F0AFF800F013F838BFAF
:100690006A6500F0EFF802E004F11801284600F066
:1006A0002AFA00F00BF803D201212966012032BD9D
:1006B000002032BDE26A686D90427047A86AC16A44
:1006C000E06A81427047DFF808124A6E0260096DE5
:1006D00041607047F8B504460D46502024B980F3B8
:1006E0001188FFF79EFFFEE725B980F31188FFF719
:1006F00098FFFEE700F0AAFADFF8D401016D626806
:100700002E688B1A16F1010F0ED0476ED4F800C078
:10071000674501D091420BD2B34207D2F31A2B6046
:10072000416E2160006D6060002402E000202860BE
:10073000012400F0A4FA2046F2BDDFF89411012054
:100740000866704770B5404CDFF8845111E000F046
:100750007DFA286AC668301D00F0F3F9E86C401E87
:10076000E864686B401E686300F089FA304600F068
:1007700009F8686B0028EAD121680229F9D3FFF74C
:100780004BFFF6E710B5044694F85D0040B9206BC6
:1007900000F035F92046BDE8104000F030B910BD3A
:1007A0000128F7D00228FAD0FFF722FFFFF739FF20
:1007B000FEE70C49C86A006810B94FF0FF3203E049
:1007C000C86AC268D0684268CA667047DFF800111C
:1007D000886D08B901207047086F08B9022070477A
:1007E00000207047EC480020201D00F0AAB938B561
:1007F0000446002134B3DFF8D850A86A502284425E
:1008000004D082F31188FFF70CFFFEE7606D20B97A
:1008100082F31188FFF705FFFEE7E26A236D401EB1
:100820009A4260650ED068B9FFF7DEFF226DE26282
:10083000C2F13800A061696D914238BF6A6500F06D
:1008400005F80121084632BD004100201420DFF8E0
:1008500084304243211D981800F04DB900F00FFA82
:10086000284670BD3046BDE8F2831B4A4FF08051E8
:10087000116070471420174B4243211D9818704790
:10088000F8B5134D2F6D0C46A96A0646081D00F0F9
:1008900058F916F1010F05D124B1A86A011D05F11F
:1008A00038001BE0A86AF6194660BE42A86A05D265
:1008B000011D286BBDE8F44000F02AB9011DE86A6B
:1008C00000F026F9E86E864238BFEE66F1BD000002
:1008D000EC4800200041002004ED00E0BDE8F440B9
:1008E00000F009B949444C45000000002DE9F843E7
:1008F0000446FFF798FD684FB8684FF000090025DF
:1009000008BB07F1200307F1200113F0070F4FF494
:1009100070500A4605D0CA1DD208D200C2F57050E8
:10092000081880180838C008C0003A607D60B860B8
:1009300045600560831A5360106050683861F86044
:100940004FF00040F8614FF05008F869044246D17A
:10095000002C44D0083414F0070F04D004F1080030
:1009600004F00704041B002C39D0F868A04236D3E9
:100970003E68394601E0314606467068A04202D220
:1009800030680028F7D1B868864228D00A683068F5
:10099000086002F108097268121B112A0CD3311980
:1009A00011F0070002D000F023F8FEE7301D0251DD
:1009B0007460084600F04DF87168F8683C69401AA8
:1009C000F860FA68A24288BF2246F8693A6101439A
:1009D0007160356009F007057869401C7861FFF7A0
:1009E00028FD15B100F004F8FEE74846BDE8F283A3
:1009F00088F31188BFF34F8FBFF36F8F70470028C4
:100A000000D1704738B5A0F10805234C6968E26948
:100A10005023114204D183F31188FFF7EBFFFEE767
:100A2000286820B183F31188FFF7E4FFFEE79143C4
:100A30006960FFF7F8FCE16868684118E1602846E2
:100A400000F007F8A069401CA061BDE83140FFF745
:100A5000F0BC30B510490A4600E01A4613688342DC
:100A6000FBD35368D418844203D14068C318536041
:100A7000104643681468C518A54208D189688C429D
:100A800004D06168CB184360246800E00C46046021
:100A9000824218BF106030BD8000002062F30F2238
:100AA00062F31F4200B500BF13009646944610390A
:100AB00028BFA0E80C50FAD85FEA417C28BF0CC0E0
:100AC00048BF40F8042BC90728BF20F8022B48BFB5
:100AD00000F8012B00BD4FF0FF3200F108018260E9
:100AE0004160C16000F108020261002101607047AD
:100AF00000210161704710B542684A6093688B60BD
:100B000094686160916008610168491C016010BDD2
:100B100030B50A6812F1010F08BF036907D000F170
:100B2000080300E023465C682568AA42FAD25A68A6
:100B30004A6091608B60596008610168491C0160DE
:100B400030BD4368016982689A60836842685A6070
:100B50004A68824204BF83684B60002202610868D1
:100B6000401E086008687047490810B54900A0F1A8
:100B700020034FF0807499611A60DC616FF002020B
:100B80000FF20D01596140F8242D203810BD0000EE
:100B90005A494A68502012F1010F80F31188BFF3BF
:100BA0004F8FBFF36F8F00D0FEE7FEE77CB5544A4E
:100BB000544B10685021984202D100F0B1F8FEE782
:100BC0001068514B984202D100F0AAF8FEE74F4B53
:100BD0001C780194FF251D701E78484C8DF800602C
:100BE0009DF8000000F050002070072005E09DF8FF
:100BF00000506D00401E8DF800509DF800502E06EC
:100C0000F5D4454215F1030F03D0A06000F088F839
:100C1000FEE7000200F4E060A06001981870116A1D
:100C200041F470011162106A40F07040106200F0EF
:100C30004FFA0020606000F0A9FA3548016841F0E1
:100C40004041016000F092FA002076BD502080F310
:100C50001188BFF34F8FBFF36F8F28494A68521C2A
:100C6000012A4A600AD12B490A68130606D080F38C
:100C70001188BFF34F8FBFF36F8FFEE770471F4997
:100C8000486838B9502080F31188BFF34F8FBFF305
:100C90006F8FFEE7401E486008BF80F311887047E1
:100CA00080B5502080F31188BFF34F8FBFF36F8F53
:100CB000FFF717FC18B117494FF080500860002269
:100CC00082F3118801BD000010B5EFF305805021BB
:100CD00010280A4A07D3104B185C1478A04202D29D
:100CE00000F01EF8FEE790680C4A136803F4E06316
:100CF000984202D200F014F8FEE710BD6400002014
:100D000000ED00E071C20F4170C20F4100E400E04D
:100D100034EF00E004ED00E0F0E300E00CED00E073
:100D200081F31188BFF34F8FBFF36F8F704730B5DA
:100D3000016884684218416802EB5103C90703D572
:100D40004C4401E0491C08D19A4218BF12F9011B1A
:100D500001D10C3030BD12F8015B002904F8015BB1
:100D6000F0D4491EF7D5EFE7034B036003F16000B1
:100D700008608021116070476045002010B586B082
:100D800000F072F9DFF83043A068C0B1002105918E
:100D9000049103AA04A905A800F006FA059804998D
:100DA00002900222009201910023039A0FF2103167
:100DB0000FF28100FFF7E8F90028E06005D150212B
:100DC00081F3118800F00AF8FEE7012006B010BD9B
:100DD0002046BDE8F681502080F31188BFF34F8F85
:100DE000BFF36F8F7047F8B5044684B01E460020ED
:100DF00014B9FFF7F0FFFEE7DFF8BC72BD68BDB1C4
:100E000006290091019202940CDAFFF7DFFC022818
:100E100007BF0A9A002300230022B868694600F041
:100E200051FA05E0002332466946284600F0E1FA0F
:100E300005B0F0BDF8B586B09F4D2968086810B9B7
:100E40000124002602E0C86806680024FFF7EBFAD8
:100E500001A800F0B4F80746019800283FD154BB20
:100E6000B7422DD3FFF7E5FA2868C168CC68201D8A
:100E7000FFF767FE94F82800410717D5A1693346AC
:100E80003A468919204600F0D5F840B1002000907C
:100E90000023324600212046FFF7A5FF18B1216A42
:100EA0002046884725E0FFF796FFFEE700F0FE00AA
:100EB00084F82800F3E7686801684C1EA441E40F39
:100EC000A8682246F11B00F01DFCFFF7B2FA80B9BA
:100ED0007A494FF080500860FFF780FF09E0FFF784
:100EE000A8FA06E094F8280081073BD42046FFF7D3
:100EF00086FDA868002202A900F0CBFA00289CD049
:100F00000298002803D505990498039A90470298FF
:100F10000028EED4049C606910B1201DFFF711FE7B
:100F200001A800F04CF802990929E2D8DFE801F0A5
:100F30002121211A070621211A07DAE7D2E794F8BE
:100F4000282042F0010284F828200399A16131B1E0
:100F5000034602460918204600F06CF8C9E7FFF77F
:100F60003AFFFEE794F8280000F0FE0084F828001D
:100F7000BFE794F8281041F0010184F828100246D8
:100F80000399A0690B464118204600F053F8002849
:100F9000AFD0216A2046884794F828004107A8D599
:100FA000002000900023039AA069821800212046A7
:100FB000FFF719FF00289CD1FFF70DFFFEE72DE991
:100FC000FC410646FFF789FA3B4D044628698442F6
:100FD00009D3002131602C61FAE678603F61391D48
:100FE0002868FFF795FD29680868F0B1C868D0F84F
:100FF0000080C768381DFFF7A4FD396A3846884766
:1010000097F828004107EED5B86940448045E4D3FD
:10101000002000900023424600213846FFF7E3FEFF
:101020000028E0D1FFF7D7FEFEE768686960286016
:101030000121CFE738B500248A42416000611E4D8E
:1010400006D38169D21A8A4206D2011D686807E078
:101050009A4203D2994201D3012403E0011D28687A
:10106000FFF756FD204632BD1CB5FFF7EFFD124CD1
:10107000A068E0B904F11400FFF72DFD04F1280089
:10108000FFF729FD04F1140004F12801002220607B
:101090006160009204F13C0304F18C0210210A20EB
:1010A00000F0C7F8A06010B107A100F016FBBDE882
:1010B0001340FFF7E4BD0000C047002004ED00E04E
:1010C000546D722053766300546D7251000000001D
:1010D0000748084B00210160002282604FF47A72B9
:1010E0001968B1FBF2F2521E42600721016070479D
:1010F00010E000E07C000020EFF30980BFF36F8F69
:10110000264B1A681EF0100F08BF20ED108A20E948
:10111000F04F106009B44FF0500080F31188BFF316
:101120004F8FBFF36F8FFFF73BFA4FF0000080F354
:10113000118809BC19680868B0E8F04F1EF0100F5C
:1011400008BFB0EC108A80F30988BFF36F8F704737
:10115000124B19680868B0E8F04F80F30988BFF3B4
:101160006F8F4FF0000080F3118870470C480068C3
:10117000006880F308884FF0000080F3148862B69E
:1011800061B6BFF34F8FBFF36F8F00DFDFF814003E
:10119000016841F4700101607047000014490020AB
:1011A00008ED00E088ED00E0044B036003F160000F
:1011B00008604FF480711160704700BFA03C0020B0
:1011C00070B504000D4602D100F074F8FEE7FFF799
:1011D0003DFD206CE16B226800FB01F3491E484392
:1011E00010441344A3600026A663E060626004F12B
:1011F00044004FF0FF310170417075B92069A0B112
:1012000004F11000FFF730FA78B1DFF8F0144FF076
:101210008050086000F0D5F907E004F11000FFF7F6
:101220005AFC04F12400FFF756FCFFF728FD0120CB
:1012300070BD7CB51C46502320B983F3118800F0A3
:10124000C0F9FEE724B983F3118800F0BAF9FEE78C
:101250002AB129B983F3118800F0B3F9FEE779B90F
:1012600050250095009E502E0FD1009B34B1069B57
:10127000012584F84650009400F00CF8204676BD15
:1012800083F3118800F09DF9FEE783F3118800F0E5
:1012900098F9FEE738B5049D1C4600290CBF2D6067
:1012A0002A60E863296428460121FFF789FF85F851
:1012B0004C4031BD502080F31188BFF34F8FBFF3F6
:1012C0006F8F70472DE9F64782B004461E465027BF
:1012D00014B900F074F9FEE75FEA010A01D1206C4D
:1012E00060B9022E02D1E06B01280AD1FFF76EFA35
:1012F00050B9039840B100F062F9FEE700F05FF9E1
:10130000FEE700F05CF9FEE727460024DFF8EC83F7
:101310004FF080592EE0039800284BD014B900F00C
:1013200041F90124FFF7ABFCFFF77DF8FFF78EFCD6
:1013300007F1440000F039F904BF0022027000F008
:1013400039F904BF00224270FFF799FC00F04DF814
:10135000002844D1FFF77AFCB86BF96B884214BFC0
:1013600000250125FFF78BFC45BB384600F076F9D8
:10137000FFF75FF8FFF76AFCB86BF96B884201D39F
:10138000022EC8D132465146384600F01FF9796A1C
:1013900029B107F12400FFF767F908B904E018B193
:1013A000C8F8009000F00DF9FFF769FC012004B0C7
:1013B000BDE8F087FFF763FC0020F8E7039907F129
:1013C0001000FFF719F9384600F048F9FFF731F837
:1013D0000028CFD1C8F8009000F0F3F8CAE73846EB
:1013E00000F03CF9FFF725F8E6E703A96846FFF7A8
:1013F00071B92DE9F8430446884615461E46502724
:1014000014B900F0DCF8FEE7B8F1000F01D1206C50
:1014100028BB022E02D1E06B012823D1FFF754FC38
:10142000EFF3118900F02BF801D3022E22D194F9A9
:101430004570A06B32464146204600F0C7F817F1D0
:10144000010F12D1606A98B104F12400FFF70CF982
:10145000002818BF002D0BD00120286008E000F004
:10146000AEF8FEE700F0ABF8FEE77F1C84F84570AD
:10147000012000E0002089F31188BDE8F28387F3A2
:101480001188BFF34F8FBFF36F8FA06BE16B884262
:1014900070472DE9F74306460F460024502526B92C
:1014A00085F3118800F08DF8FEE70FB9306C48B96C
:1014B000FFF78CF978B9029868B185F3118800F0CC
:1014C00080F8FEE785F3118800F07BF8FEE700F076
:1014D00067F8FEF7AEFFFFF7B9FBB56BDFF81C82CC
:1014E000002D4FF0805932D10298002845D014B910
:1014F00000F058F80124FFF7C2FBFEF794FFFFF756
:10150000A5FB06F14400415711F1010F04BF002271
:10151000027000F04FF804BF00224270FFF7AFFBEB
:1015200002A9FFF763FF002830462AD100F0CAF86D
:101530000028CCD000F02FF800F032F8FEF779FF49
:101540000028C8D1C8F8009000F03BF8C3E739463E
:10155000304600F06FF86D1EB563306940B106F19A
:101560001000FFF781F818B1C8F8009000F029F8D2
:10157000FFF785FB0120BDE8FE83FFF780FB00201D
:10158000F9E700F06BF8FEF754FF304600F09AF8E8
:101590000028A0D0F3E7029906F12400FFF72CB849
:1015A00030465BE06846FFF78EB890F9001011F105
:1015B000010F704790F9011011F1010F704787F387
:1015C0001188BFF34F8FBFF36F8F7047F8B5064692
:1015D0001546B46B326C002742B9306830BBB06836
:1015E000FFF705F900210746B1601FE065B9706893
:1015F00000F0ACF87068316CB268084490427060DA
:1016000014D33068706011E0F06800F09FF8306C1F
:10161000F16840420144F1603268914202D2B168FF
:101620000844F060022D01D104B1641E641CB4634F
:101630003846F2BD026C002A0B4600D1704710B547
:10164000C16884681144C160A14224BF0168C160BF
:10165000C168BDE81040184600F078B8F8B50546F6
:10166000FFF7F4FA05F1440494F9016007E005F18D
:101670002400FEF7F9FF08B1FFF75FF8761E70B29D
:10168000012802DB686A0028F1D14FF0FF3666704E
:10169000FFF7F5FAFFF7DAFA94F9007007E005F1C1
:1016A0001000FEF7E1FF08B1FFF747F87F1E78B2A0
:1016B000012802DB28690028F1D12670BDE8F1403D
:1016C000FFF7DDBA10B50446FFF7C0FAA06B441E61
:1016D000A441FFF7D4FAE00F10BD10B50023084C69
:1016E00054F833201AB15B1C082BF9D310BD44F811
:1016F000331004EBC301486010BD000004ED00E0AE
:10170000D0490020F8B504460D461646FFF79EFA6C
:1017100004F1380797F90C0010F1010F04BF002104
:10172000397397F90D0010F1010F04BF002179738F
:10173000FFF7A5FA386828B93246294604F1240093
:10174000FEF777FF2046BDE8F24087E74AB1000088
:1017500011F8013B521E00F8013B1CBF11F8013B80
:10176000F8E7704738B5040001D1012032BD00F020
:101770001BF808B900F01CF800F01FF800F027F87B
:10178000FFE7416100F001F832BD2068C16841F413
:101790000051C16000206860202169702020A8707D
:1017A000002161630020704704F1400568787047AC
:1017B00000212970204600F041BB24206870206879
:1017C000C16821F40051C160204600F0B3BA20681E
:1017D000016921F4904101612068416921F02A01E9
:1017E00070472DE9FC4106460D4696F84100202839
:1017F00014461F4640D10DB1200001D101203CE02C
:1018000000207064212186F8411000F059FBB48457
:101810008046F48400F033F804BF306900281ABF12
:101820002C460025002412E000228021304600F0E2
:10183000A4F9E0B93068002C12BF14F8011B35F888
:10184000021BC1F308014160F08C411EF184434644
:10185000F08C00970028E7D100224021304600F0AC
:101860008CF920B9202086F84100002005E02020D6
:1018700086F84100032000E00220BDE8F681B06850
:10188000B0F5805F7047216801F1140252E8001F33
:10189000206800F1140321F0400143E80010002803
:1018A0007047F8B5044625682A6828460146C66888
:1018B0004B6912F00F0F02F0200106F0200007D153
:1018C000002918BF00285DD02046BDE8F240C9E1DC
:1018D000DF0702D416F4907F54D0D50705D5F6055E
:1018E00003D5656C45F001056564550705D5DE0730
:1018F00003D5656C45F002056564950705D5DE07DF
:1019000003D5656C45F004056564120706D508B972
:10191000DA0703D5636C43F008036364626C002A42
:101920002FD000291EBF0028204600F09BF9206818
:101930004069616C0A0701D440061DD5204600F0BD
:1019400067F920684169480611D5FFF79CFFFCD173
:10195000E06B60B10FF2FD210165E06B00F0F2FA7F
:1019600000280ED0E06B016DBDE8F440084720462A
:10197000BDE8F24000F00BBB204600F008FB002061
:101980006064F1BD206B012804F1410340F09280B6
:10199000D00600D5F10640F18D8000220092296822
:1019A00000912268506800900099206842695006B2
:1019B00043D5E16B0868406880B20028E1D0A28D71
:1019C0009042DEDAE085C869B0F5807F2DD02168CD
:1019D00001F10C0050E8001F226802F10C0521F40F
:1019E000807145E800100028F1D100F0A2F8490804
:1019F00000F11405490045E800100028F5D100F079
:101A000098F800F1140521F0400145E80010002885
:101A1000F5D1202058700021216300F090F800F0EB
:101A2000E9F8FAD1E06B00F051FA02206063A18D71
:101A3000E08D091A89B2204638E0A08DE18D411A67
:101A4000E08D00281CBF88B2002871D022461068A3
:101A500000F10C0454E8004F00F10C0624F49074DB
:101A600046E800400028F2D1106800F1140454E860
:101A7000004F640800F11406640046E800400028A6
:101A8000F2D12020587000231363106800F10C037A
:101A900053E8003F00F10C0523F0100345E8003047
:101AA0000028F2D10220506389B21046BDE8F4400C
:101AB00000F06EBA10062BD5310629D518782128EA
:101AC00036D1A068B0F5805F04BF2069002809D135
:101AD000206A01882A46C1F308015160206A811CEE
:101AE000216205E0206A411C216222680078506072
:101AF000E08C401EE08480B2D0B92068C16821F03B
:101B00008001C1602068C16841F04001C160F1BD41
:101B100050060DD571060BD52846C16821F040014D
:101B2000C160204620211970BDE8F24000F031BAB2
:101B3000F1BD206800F1140151E8001F70472068D2
:101B400000F10C0151E8001F00F10C03704702681E
:101B500002F10C0151E8002F036803F10C047047F7
:101B6000016801F1140252E8002F520801F1140437
:101B7000520044E80021002970472DE9FC41089CEF
:101B800005460E4690461F46286801683140B1421E
:101B90000CBF0120002040452AD114F1010FF3D0E1
:101BA00000F08EF9C01B844200D314B90320BDE8B5
:101BB000F6812968C8684207E6D5802E18BF402EF6
:101BC000E2D0084602681307DED5002000902A689C
:101BD00013680093496800910098284600F018F8AF
:101BE00005F1400008214160002202700120DEE77B
:101BF0000020DCE721F0100143E8001000287047C6
:101C0000016801F10C0252E8002F01F10C04704749
:101C100010B5FFF7F5FF22F4907200F016F8F8D136
:101C2000FFF79EFFFCD1016B012906D1FFF78FFF63
:101C300022F0100200F009F8F8D1202180F84210BB
:101C40000022026310BD22F4807244E800210029C2
:101C500070470000806B0021C1850022C28400F023
:101C600096B900001CB590F84210222952D1816823
:101C7000826AB1F5805F0AD1016969B90368596860
:101C8000C1F308011180826A911C81620FE0002972
:101C900004BF0169002902D10368596803E00168A3
:101CA000496801F07F011170816A4A1C8262C18D0E
:101CB000491EC18589B259BB0168CA6822F0200259
:101CC000CA600168CA6822F48072CA6001684A6901
:101CD000520852004A61202180F8421000224263DB
:101CE000016B012912D1026300F016F80268116835
:101CF000CB0607D500240094126800920368596847
:101D00000091009A818D00F043F901E000F042F962
:101D1000002016BD022016BD016801F10C0252E838
:101D2000002F01F10C0422F0100244E800210029E8
:101D3000F2D1704770B5044622681169E06821F459
:101D4000405101431161D3682748A16803402069CD
:101D50000B4361690343E0690B430343D36051695B
:101D6000A06921F440710143516120498A421CBF9E
:101D70001F48824202D100F09DF901E000F092F983
:101D800062682568E4691921B4F5004FA1FB0001E0
:101D90006FF0630612D1D30F520000F0BFF900F0CC
:101DA00029F8F60032366420B6FBF0F0420002F467
:101DB000F87202EB011200F0070010E0930F92009E
:101DC00000F0ACF900F016F8360132366420B6FBAC
:101DD000F0F000F0F00202EB011200F00F008018AA
:101DE000A86070BD00000000F369FFFF0010014013
:101DF000001401406421B0FBF1F106FB01067047BD
:101E000082B00020009000222948416841F48041BE
:101E10004160416801F480410091009900920F21D6
:101E2000036843F080530360006800F08050009026
:101E300000986FF0010002B000F00EBA10B586B045
:101E400004461422002101A800F03AFA216819483A
:101E500081422BD1002218480092016941F40031DF
:101E60000161016901F400310091009900920C2197
:101E7000036843F0010303600222006800F00100E0
:101E8000009000980D4801910292002103910322D5
:101E900007210591049201A900F01CFA00220521F6
:101EA000262000F0D9F9262000F0F4F906B010BD84
:101EB00040380240004400403038024000000240F8
:101EC00001484068704700BF70000020F8B5044624
:101ED00004F134056E6AFFF7F3FF074668780228BD
:101EE00005D080212962002028700120F2BD2068E1
:101EF000016821F01601016000F036F8E86800285A
:101F000004BF6869002801D000F03AF800F032F808
:101F100020680168CA070CD5FFF7D2FFC01B06284E
:101F2000F6D3202028620321697000202870032046
:101F3000F2BDA86A3F218140B16000200121697093
:101F40002870F2BD90F83510022903D08022426536
:101F500001207047052180F835100068026852089A
:101F600052000260002070472068416921F0800122
:101F70004161704720680168490849000160704765
:101F80002068016821F00801016070470000704777
:101F900070477047704700002DE9F04104000F467C
:101FA00054D0574E306800F00700B84202D200F01B
:101FB00073F84BD12068534D810712D5400703D5E4
:101FC000A96841F4E051A9602078010703D5A86809
:101FD00040F46040A860A968A06821F0F0010143C6
:101FE000A9602178C80729D56068012802D129682D
:101FF0008A0305E0022818BF032803D129688A0153
:1020000003D423E029688A0720D5A968890840EA13
:102010008100A860FFF754FF8046A868616800F05F
:102020000C00B0EB810F09D0FFF74AFFA0EB0800CE
:1020300041F289318842F0D303202BE0306800F070
:102040000700874204D200F027F801D0012021E0E8
:102050002078410705D5AA68E06822F4E0520243DF
:10206000AA602178080706D5A968206921F4604193
:1020700041EAC001A96000F03BFAAA682249234B5B
:10208000C2F30312895CC84018602148006800F060
:102090005FFA0020BDE8F0813770316801F0070178
:1020A000B942704719481B4A006813681A49C3F3BC
:1020B000822206E01548174A006813681649C3F3E0
:1020C0004232895CC840704710B50F220260114A45
:1020D000136803F003034360146804F0F0048460A1
:1020E000136803F4E053C3601268D20802F4E052AC
:1020F00002610348026802F007020A6010BD000096
:10210000003C024000380240443000087C000020BF
:102110007800002008380240DC300008D3BBD9B179
:10212000B2F5803F5BD2022A1ED98C46B1FBF2F198
:1021300002FB11C31B0443EA1043B3FBF2FC02FB96
:102140001C3380B240EA0343B3FBF2F002FB1032CF
:1021500040EA0C4000237047022A05D98446B0FBB0
:10216000F2F002FB10C270474AB105D100F0010243
:1021700049085FEA3000704700220023704700F0F2
:1021800037BA0B000200002100207047F7D300226D
:1021900000237047904271EB030CF2D370B5B1FA93
:1021A00081F4B3FA83F52C1BA340C4F1200532FA65
:1021B00005F63343A2405FF00046E64002E05B08CC
:1021C0005FEA3202841A71EB030524BF20462946D8
:1021D0007641F4D302000B003000002170BD70B5D1
:1021E000B1FA81F4B2FA82F5C4F120046419B4F1B1
:1021F0002006DAD3B2405FF00044F440002502E04C
:1022000052085FEA3303C61A71EB020E24BF304650
:10221000714664416D41F3D302000B002000290098
:1022200070BD00000901020002D4204881547047AB
:102230001F4B02F00F021A4402F8041C70471D4B9A
:1022400019684FF6FF020002114000F4E0600843F5
:10225000194908431860704770B5164B1C68C4F3E1
:1022600002230124C3F10705052D2EBF0F2504FA13
:1022700005F56D1E1E1D072E34BF0023DB1E2940F1
:10228000994004FA03F3BDE870405B1E1A40114305
:10229000C8E70000010007D4012200F01F01074B2E
:1022A0008A40400943F820207047000000E400E025
:1022B00018ED00E00CED00E00000FA0500E100E0A0
:1022C00010B5044610460A460146204600F092F931
:1022D000204610BD2DE9F84F0D46002679497A4A6F
:1022E0000F23044601202F68B04000EA070880450C
:1022F00040F0D5804FEA460C032707FA0CF76FEA47
:10230000070E6F6807F00309B9F1010F1CBF07F052
:102310000307022F12D1A768D5F80C900EEA070721
:1023200009FA0CF949EA0707A760676827EA00007D
:102330006F68C7F30017B74038436060B0002F796B
:1023400007F00307032F21D0E768D5F808900EEABD
:10235000070709FA0CF949EA0707E7602F7907F040
:102360000307022F12D1F70804EB870700F01C09BE
:10237000D7F820A003FA09FB2AEA0B0AD5F810B017
:102380000BFA09F949EA0A09C7F8209027680EEA0A
:10239000070E2F7907F0030707FA0CF747EA0E0C30
:1023A000C4F800C06F6817F4403F78D04FF0000EBB
:1023B000CDF800E04FEA960C176847F480471760A5
:1023C00000F00C00D2F800E0404F0EF4804ECDF843
:1023D00000E0DDF800E057F82C7003FA00FE27EA71
:1023E0000E0E3B4FBC4208BF002722D0394FBC42E3
:1023F00008BF01271DD0384FBC4208BF022718D0A4
:10240000364FBC4208BF032713D0354FBC4208BF2C
:1024100004270ED0334FBC4208BF052709D0324FE6
:10242000BC4208BF062704D0304FBC420CBF072770
:10243000082707FA00F040EA0E00DFF890E04EF8B7
:102440002C006FEA0800D1F808C06F6800EA0C0C95
:10245000FF0248BF48EA0C0CC1F808C0D1F80CC014
:102460006F6800EA0C0CBF0248BF48EA0C0CC1F8C8
:102470000CC0D1F804C06F6800EA0C0CBF0348BF61
:1024800048EA0C0CC1F804C0D1F800C000EA0C0CFA
:102490006868C00348BF48EA0C0CC1F800C0761C4D
:1024A0000F2E7FF61FAFBDE8F18F02B909048161DD
:1024B0007047426901EA0203914341EA03418161A5
:1024C00070470000003C0140443802400838014099
:1024D000000002400004024000080240000C0240DC
:1024E000001002400014024000180240001C02408C
:1024F00030B5144C606800F00C00042802D00828A5
:1025000002D01DE0104830BD22682068002341023F
:1025100002F03F0204D525680B49C5F3881003E09B
:1025200020680A49C0F38810A1FB0001FFF7F6FDFF
:102530002168C1F30141491C4900B0FBF1F030BDF5
:10254000024830BD0438024040787D010024F40088
:1025500078B587B00446002000902048016841F01B
:102560001001016001A9006800F01000009002A8AD
:10257000009AFFF7A9FD059810B9FFF793FD02E057
:10258000FFF790FD4000164D1649174B2960B0FB30
:10259000F3F0401E40F2E73268600021EA602961F2
:1025A000A960A961284600F02FF8060012D128463C
:1025B00000F037F806000DD13620FFF76BFE102C27
:1025C00007D2002221463620FFF746FE0748046066
:1025D00000E00126304608B070BD000040380240DF
:1025E000884900200010004040420F007800002081
:1025F000704700004018491C1CBFB1F1010100F8F0
:10260000012DF9D17047000038B5040001D1012037
:1026100032BD00F063F818B900F0FCF800F066F97C
:102620003AE090F83D10012901D0012070470221C5
:1026300080F83D100168CA6842F00102CA60016872
:10264000DFF87C20914218BFB1F1804F17D0DFF83E
:10265000742091421CBFDFF8703099420FD0DFF830
:102660006C2091421CBFDFF86830994207D0DFF838
:10267000642091421CBFDFF86030994205D189681F
:1026800001F00701062905D001680A68084642F0F2
:10269000010202600020704702206870211D20683E
:1026A00000F0BCF80120A8720121A970E87029711E
:1026B0006871A971E871297268726970002032BD71
:1026C000000001400004004000080040000C0040F1
:1026D00000040140004001400018004004F13C05A6
:1026E0006878704770B504462068C5680669B10708
:1026F00014D5AA0712D56FF00201016101222277D9
:10270000806910F0030F204602D000F0F0F803E0DB
:1027100000F0EEF800F07BF800202077700715D568
:10272000690713D520686FF0040202610221217746
:10273000806910F4407F204602D000F0D8F803E012
:1027400000F0D6F800F063F800202077300715D5A8
:10275000290713D520686FF0080202610421217750
:10276000C06910F0030F204602D000F0C0F803E06B
:1027700000F0BEF800F04BF800202077F00615D5E9
:10278000E90613D520686FF0100202610821217755
:10279000C06910F4407F204602D000F0A8F803E0A2
:1027A00000F0A6F800F033F80020207706F00101D1
:1027B00005F00100014206D020686FF001010161BF
:1027C000204600F04EF9300608D5290606D52268C5
:1027D0006FF080001061204600F05CF9700608D5AB
:1027E000690606D522686FF040001061204600F0AF
:1027F00052F9B0060AD5A90608D522686FF0200064
:1028000010612046BDE8704000F046B970BD20461A
:1028100000F043B90021297020467047F0B50568E3
:10282000274C284B284E294FDFF8A4C0A04218BFE0
:10283000B0F1804F07D0604518BFB84203D0B04216
:1028400018BF98420DD14A6825F070051543A04283
:1028500018BFB0F1804F17D060451CBFB842B042DE
:1028600012D098421CBF1B4A90420DD01A4EB04263
:102870001CBF1A4A904207D0194EB0421FBF194AD6
:102880009042194EB04203D1CA6825F440751543F1
:102890004A6925F0800515430560A0428D68C56230
:1028A0000A68826212BF984209690163012242618B
:1028B0000169CA0703D50169490849000161F0BDF2
:1028C0000000014000040140000C004000080040EE
:1028D0000004004000400140004401400048014025
:1028E00000180040001C0040002000407047704766
:1028F0007047000038B586B000F0D0F800F054F80A
:1029000000F090F800200090594C5A48016841F0BE
:1029100001010160026802F00102009200220099A8
:1029200000924FF48051036843F00803036000688D
:1029300000F00800009000982046FFF7B6FD4FF425
:10294000805101910122002103910491029201A979
:102950002046FFF7BFFC484C484820604FF4E13167
:102960000C20002260616160A260E2602261A261CD
:10297000E2612046FEF7F6FE08B100F089F800F0AB
:10298000B4F83F4D0FF2A9002A46002100F0D7F815
:10299000A06405F1240200210FF2B10000F0CFF88D
:1029A000E06400F0B1F8FEE780B592B0302200217B
:1029B00006A8FFF785FC00F035F800200090012301
:1029C0003048016841F0805101600021006800F04A
:1029D0008050009000982C480091026842F4804298
:1029E00002600222006800F48040009006A800996E
:1029F00006921021002209930A910C9200F0FEF831
:102A000008B172B6FEE70F200190002102910391F8
:102A10000491059101A8FFF7BFFA08B172B6FEE76D
:102A200013B000BD1422002101A8FFF749BC00002B
:102A300010B5114C6423122204F150012046FEF718
:102A4000D0FE4FF47A7000F0C6F8F3E780B54FF48B
:102A500080510748FFF72DFD4FF47A7000F0BBF866
:102A6000F5E700680949884208BF00F055BA704789
:102A7000000C0240303802400000002000440040BA
:102A8000282F00084038024000700040001000402D
:102A900072B6FEE7704770477047704780B50B48C5
:102AA000016841F400710160026842F480620260D2
:102AB000016841F4807101600320FFF7C0FB0F2023
:102AC000FFF746FDFFF79CF9002002BD003C0240E5
:102AD00080B5DFF81C010168FDF778FE012803D0FE
:102AE000BDE80140FEF7DCB801BDEFF3058000B1A1
:102AF0006EE0DFF80011086810B901220A60704723
:102B00004FF0FF307047000080B5EFF3058000B153
:102B10000FE0DFF8E0000168012909D1DFF8D810E3
:102B200000220A7002230360FDF746FC002002BD6C
:102B300002E06FF0050002BD4FF0FF3002BDF8B5B6
:102B400084B000230393EFF30583002B3DD10300F2
:102B50003BD08025182600245AB3136803B11C46C5
:102B600093691BB11E0004D0392E02D21379DF07FE
:102B700001D500202AE0536903B19D08D2F80CC0AA
:102B8000976887B1BCF1600F1FD31269002A18BF84
:102B9000002B1AD001920B46029700962A46214636
:102BA000FDF7F2FA10E0BCF1000F04BF1269002A31
:102BB0000BD103AB019300960B46AAB22146FDF759
:102BC00014FB012801D000200390039805B0F0BD4C
:102BD0006FF00500704710B5EFF3058111B16FF08C
:102BE000050403E0002408B1FDF7CCFB204610BD2E
:102BF00010E000E0104A00201FED00E02DE9F8434E
:102C0000040016D02078DFF80063C10713D5B06840
:102C100000F00C00042807D0B06800F00C00082871
:102C20003DD1706841023AD53068810303D56068B0
:102C3000002800F064812078B44F810719D5B0686E
:102C400010F00C0F07D0B06800F00C0008285BD122
:102C50007068410258D43068810703D5E0680128C4
:102C600040F04D813168206921F0F80141EAC0014E
:102C700031602178080779D56069A549002868D0B6
:102C800001220A60FFF71CF90546706F81076DD4B9
:102C9000FFF716F9401B0228F7D9032032E16068DC
:102CA000B0F5803F04D1306840F48030306011E0EE
:102CB000B0F5A02F306806D140F480203060316834
:102CC00041F4803105E020F480303060316821F437
:102CD00080213160606858B1FFF7F2F8054630682E
:102CE0008103A8D4FFF7ECF8401B6528F7D3D4E79D
:102CF000FFF7E6F80546306881039CD5FFF7E0F85A
:102D0000401B6528F7D3C8E7E068A8B10121396006
:102D1000FFF7D6F805463068810705D4FFF7D0F8ED
:102D2000401B0228F7D9B8E73068216920F0F80085
:102D300040EAC10030609CE73860FFF7C1F8054603
:102D40003168880795D5FFF7BBF8401B0228F7D9F3
:102D5000A3E70860FFF7B4F80546706F810705D553
:102D6000FFF7AEF8401B0228F7D996E72078410715
:102D700060D5306C0025C1000BD4002000900125E7
:102D8000316C41F080513164306C00F08050009023
:102D90000098DFF88081D8F80000C10513D4D8F876
:102DA000000040F48070C8F80000FFF789F8814601
:102DB000D8F80000C10506D4FFF782F8A0EB09009F
:102DC0000228F5D969E7A068012805D00528306FE9
:102DD00006D140F004003067306F40F0010005E09C
:102DE000400840003067306F20F00400306741F247
:102DF0008938A06860B1FFF763F88146306F8107BA
:102E000013D4FFF75DF8A0EB09004045F6D344E783
:102E1000FFF756F88146306F810706D5FFF750F867
:102E2000A0EB09004045F6D337E71DB1306C20F028
:102E300080503064A069002863D0B16801F00C01B3
:102E400008293AD002282AD100203866FFF738F83E
:102E500005463068810105D5FFF732F8401B02288E
:102E6000F7D91AE7E069216A626A0843A16A49084A
:102E700040EA8210491E40EA0140E16A40EA0160EE
:102E8000706001203866FFF71BF804463068810146
:102E900037D4FFF715F8001B0228F7D9FDE600200C
:102EA0003866FFF70DF804463068810129D5FFF731
:102EB00007F8001B0228F7D9EFE601281FD0706839
:102EC000E26900F48001914202BF00F03F01226AF2
:102ED000914201BF47F6C0710140626AB1EB821FA7
:102EE0000DD1A26A520800F44031521EB1EB024FDC
:102EF00002BF00F07060E16AB0EB016F01D0012009
:102F000000E00020BDE8F2830038024000004742A4
:102F1000800E4742007000400248416802788A18DB
:102F20004260704770000020C830000800000000B8
:102F3000000000000000000000000000000200008F
:102F4000180000000000000000000000D43000085D
:102F50000000000000000000000000000000000071
:102F60000002000008000000000000000000000057
:102F700030B4002512E050F8042BD30744BF4A4474
:102F8000521E091F042942F8045BFAD213468C072B
:102F900044BF15809B1CC90748BF1D7050F8041B17
:102FA0000029E8D130BC704710B507497944183181
:102FB000064C7C44163404E00A68081D1144884716
:102FC0000146A142F8D110BD2C00000048000000CD
:102FD0004EF68851CEF20001086840F47000086097
:102FE000BFF34F8FBFF36F8F4FF00170E1EE100A08
:102FF000704700007DFFFFFF944900008000002023
:10300000000000002BDDFFFF180200004E00000052
:1030100000000020FEE7FEE7FEE7FEE7FEE7704760
:103020000248FEF73EBC0248FFF75CBB00000020F0
:10303000884900200248016841F47001016070472E
:1030400088ED00E000000000000000000102030421
:103050000607080900F00DF8002801D0FFF7A4FFCB
:10306000AFF300800020AFF30080FFF743FC00F0D7
:1030700002F80120704700F001B80000074638460A
:1030800000F002F8FBE7000080B5AFF30080024AD1
:1030900011001820ABBEFBE72600020005480146E0
:1030A00003B4684680F30988AFF30080FFF790FF10
:1030B000FFF7D0FFA5EDF5FE014880470148004726
:1030C000353000089D300008756172745461736B6F
:1030D000000000006C65645461736B000000000028
:1030E00001020304FFF7FEBFFFF7FEBFFFF7FEBFBD
:1030F000FFF7FEBFFFF7FEBFFFF7FEBFFFF7FEBF04
:10310000FFF7FEBFFFF7FEBFFFF7FEBFFFF7FEBFF3
:10311000FFF7FEBFFFF7FEBFFFF7FEBFFFF7FEBFE3
:10312000FFF7FEBFFFF7FEBFFFF7FEBFFFF7FEBFD3
:10313000FFF7FEBFFFF7FEBFFFF7FEBFFFF7FEBFC3
:10314000FFF7FEBFFFF7FEBFFFF7FEBFFFF7FEBFB3
:10315000FFF7FEBFFFF7FEBFFFF7FEBFFFF7FEBFA3
:10316000FFF7FEBFFFF7FEBFFFF7FEBFFFF7FEBF93
:10317000FFF7FEBFFFF7FEBFFFF7FEBFFFF7FEBF83
:10318000FFF7FEBFFFF7FEBFFFF7FEBFFFF7FEBF73
:10319000FFF7FEBFFFF7FEBFFFF7FEBFFFF7FEBF63
:1031A000FFF7FEBFFFF7FEBFFFF7FEBFFFF7FEBF53
:1031B000FFF7FEBFFFF7FEBFFFF7FEBFFFF7FEBF43
:1031C000FFF7FEBFFFF7FEBFFFF7FEBFFFF7FEBF33
:1031D000FFF7FEBFFFF7FEBFFFF7FEBFFFF7FEBF23
:1031E000FFF7FEBFFFF7FEBFFFF7FEBFFFF7FEBF13
:1031F000FFF7FEBFFFF7FEBFFFF7FEBFFFF7FEBF03
:10320000FFF7FEBFFFF7FEBFFFF7FEBFFFF7FEBFF2
:10321000FFF7FEBFFFF7FEBFFFF7FEBFFFF7FEBFE2
:10322000B0001148656C6C6F2C2046726565525475
:103230004F53210D0AFA00FCAAFC000001F900001E
:0732400010FC000224F40061
:040000050800309D22
:00000001FF
