:020000040800F2
:10000000680400201D160008691500086B1500081B
:100010006D1500086F15000871150008000000003C
:100020000000000000000000000000007315000840
:100030007515000800000000771500087915000804
:1000400035160008391600083D160008411600084C
:1000500045160008491600084D16000851160008FC
:1000600055160008591600085D16000861160008AC
:1000700065160008691600086D160008711600085C
:1000800075160008791600087D160008811600080C
:1000900085160008891600088D16000891160008BC
:1000A00095160008991600089D160008A11600086C
:1000B000A5160008A9160008AD160008B11600081C
:1000C000B5160008B9160008BD160008C1160008CC
:1000D000C5160008C91600087D150008CD160008D1
:1000E000D1160008D5160008D9160008DD1600083C
:1000F000E1160008E5160008E9160008ED160008EC
:10010000F1160008F5160008F9160008FD1600089B
:100110000117000805170008091700080D17000847
:100120001117000815170008191700081D170008F7
:100130002117000825170008291700082D170008A7
:100140003117000835170008391700083D17000857
:100150004117000845170008491700084D17000807
:100160005117000855170008591700085D170008B7
:1001700061170008651700086917000800000000F3
:100180006D1700087117000838B5040001D101206F
:1001900032BD00F01BF808B900F01CF800F01FF8A1
:1001A00000F027F8FFE7416100F001F832BD206858
:1001B000C16841F40051C16000206860202169706D
:1001C0002020A870002161630020704704F14005E1
:1001D0006878704700212970204600F03DBB24203C
:1001E00068702068C16821F40051C160204600F0A9
:1001F000B3BA2068016921F4904101612068416926
:1002000021F02A0170472DE9FC4106460D4696F87B
:100210004100202814461F4640D10DB1200001D1D5
:1002200001203CE000207064212186F8411000F09C
:1002300055FBB4848046F48400F033F804BF306981
:1002400000281ABF2C460025002412E0002280213D
:10025000304600F0A4F9E0B93068002C12BF14F861
:10026000011B35F8021BC1F308014160F08C411EEF
:10027000F1844346F08C00970028E7D1002240210A
:10028000304600F08CF920B9202086F8410000208B
:1002900005E0202086F84100032000E00220BDE8B0
:1002A000F681B068B0F5805F7047216801F11402F3
:1002B00052E8001F206800F1140321F0400143E8D8
:1002C000001000287047F8B5044625682A682846BB
:1002D0000146C6684B6912F00F0F02F0200106F0CC
:1002E000200007D1002918BF00285DD02046BDE8B6
:1002F000F240C9E1DF0702D416F4907F54D0D5074D
:1003000005D5F60503D5656C45F00105656455070F
:1003100005D5DE0703D5656C45F0020565649507D4
:1003200005D5DE0703D5656C45F004056564120745
:1003300006D508B9DA0703D5636C43F00803636494
:10034000626C002A2FD000291EBF0028204600F032
:100350009BF920684069616C0A0701D440061DD5ED
:10036000204600F067F920684169480611D5FFF77B
:100370009CFFFCD1E06B60B10FF2FD210165E06BE9
:1003800000F0EEFA00280ED0E06B016DBDE8F440FD
:1003900008472046BDE8F24000F007BB204600F0C9
:1003A00004FB00206064F1BD206B012804F14103CF
:1003B00040F09280D00600D5F10640F18D800022F9
:1003C0000092296800912268506800900099206886
:1003D0004269500643D5E16B0868406880B2002846
:1003E000E1D0A28D9042DEDAE085C869B0F5807F69
:1003F0002DD0216801F10C0050E8001F226802F1A5
:100400000C0521F4807145E800100028F1D100F0BE
:10041000A2F8490800F11405490045E80010002839
:10042000F5D100F098F800F1140521F0400145E8FD
:1004300000100028F5D1202058700021216300F021
:1004400090F800F0E9F8FAD1E06B00F04DFA0220E4
:100450006063A18DE08D091A89B2204638E0A08D35
:10046000E18D411AE08D00281CBF88B2002871D0B0
:100470002246106800F10C0454E8004F00F10C060D
:1004800024F4907446E800400028F2D1106800F18E
:10049000140454E8004F640800F11406640046E8B0
:1004A00000400028F2D12020587000231363106808
:1004B00000F10C0353E8003F00F10C0523F010039A
:1004C00045E800300028F2D10220506389B210467E
:1004D000BDE8F44000F06ABA10062BD5310629D5E4
:1004E0001878212836D1A068B0F5805F04BF206954
:1004F000002809D1206A01882A46C1F30801516009
:10050000206A811C216205E0206A411C2162226868
:1005100000785060E08C401EE08480B2D0B9206842
:10052000C16821F08001C1602068C16841F04001CC
:10053000C160F1BD50060DD571060BD52846C168C6
:1005400021F04001C160204620211970BDE8F24031
:1005500000F02DBAF1BD206800F1140151E8001F30
:100560007047206800F10C0151E8001F00F10C03F6
:100570007047026802F10C0151E8002F036803F193
:100580000C047047016801F1140252E8002F520870
:1005900001F11404520044E80021002970472DE9BC
:1005A000FC41089C05460E4690461F462868016897
:1005B0003140B1420CBF0120002040452AD114F146
:1005C000010FF3D000F08AF9C01B844200D314B9A4
:1005D0000320BDE8F6812968C8684207E6D5802E69
:1005E00018BF402EE2D0084602681307DED500206F
:1005F00000902A6813680093496800910098284683
:1006000000F018F805F14000082141600022027056
:100610000120DEE70020DCE721F0100143E80010B4
:1006200000287047016801F10C0252E8002F01F127
:100630000C04704710B5FFF7F5FF22F4907200F03C
:1006400016F8F8D1FFF79EFFFCD1016B012906D106
:10065000FFF78FFF22F0100200F009F8F8D12021F7
:1006600080F842100022026310BD22F4807244E838
:100670000021002970470000806B0021C185002205
:10068000C28400F092B900001CB590F842102229F3
:1006900052D18168826AB1F5805F0AD1016969B976
:1006A00003685968C1F308011180826A911C816254
:1006B0000FE0002904BF0169002902D103685968CD
:1006C00003E00168496801F07F011170816A4A1CEA
:1006D0008262C18D491EC18589B259BB0168CA6851
:1006E00022F02002CA600168CA6822F48072CA60DF
:1006F00001684A69520852004A61202180F842107C
:1007000000224263016B012912D1026300F016F846
:1007100002681168CB0607D5002400941268009285
:10072000036859680091009A818D00F03FF901E05B
:1007300000F03EF9002016BD022016BD016801F14F
:100740000C0252E8002F01F10C0422F0100244E8E0
:1007500000210029F2D1704770B504462268116962
:10076000E06821F4405101431161D3682748A16832
:10077000034020690B4361690343E0690B43034372
:10078000D3605169A06921F440710143516120494E
:100790008A421CBF1F48824202D100F0B5F901E035
:1007A00000F0AAF962682568E4691921B4F5004FE0
:1007B000A1FB00016FF0630612D1D30F520000F0CD
:1007C000BBF900F029F8F60032366420B6FBF0F0F1
:1007D000420002F4F87202EB011200F0070010E090
:1007E000930F920000F0A8F900F016F836013236A7
:1007F0006420B6FBF0F000F0F00202EB011200F012
:100800000F008018A86070BD00000000F369FFFFB2
:1008100000100140001401406421B0FBF1F106FB1F
:100820000106704781B000200090002227484168EF
:1008300041F480414160416801F480410091009998
:100840000092036843F080530360006800F080501A
:100850000090009801B0704710B586B0044614228D
:10086000002101A800F0EBF92168194881422BD141
:10087000002218480092016941F4003101610169C8
:1008800001F400310091009900920C21036843F0BB
:10089000010303600222006800F00100009000984C
:1008A0000D48019102920021039103220721059135
:1008B000049201A900F0CEF900220021262000F0C8
:1008C000F1FA262000F00CFB06B010BD40380240C3
:1008D00000440040303802400000024001484068B7
:1008E000704700BF58000020F8B5044604F13405F5
:1008F0006E6AFFF7F3FF07466878022805D080216B
:100900002962002028700120F2BD2068016821F0D2
:100910001601016000F036F8E868002804BF686935
:10092000002801D000F03AF800F032F820680168A1
:10093000CA070CD5FFF7D2FFC01B0628F6D320202C
:10094000286203216970002028700320F2BDA86A84
:100950003F218140B1600020012169702870F2BD03
:1009600090F83510022903D080224265012070479B
:10097000052180F8351000680268520852000260B4
:10098000002070472068416921F080014161704773
:1009900020680168490849000160704720680168C3
:1009A00021F00801016070470000704770477047F0
:1009B000704730B5016884684218416802EB510302
:1009C000C90703D54C4401E0491C08D19A4218BF1D
:1009D00012F9011B01D10C3030BD12F8015B002966
:1009E00004F8015BF0D4491EF7D5EFE72DE9F0419B
:1009F00004000F4654D0494E306800F00700B8425A
:100A000002D200F073F84BD12068454D810712D512
:100A1000400703D5A96841F4E051A9602078010797
:100A200003D5A86840F46040A860A968A06821F0D8
:100A3000F0010143A9602178C80729D56068012821
:100A400002D129688A0305E0022818BF032803D1D0
:100A500029688A0103D423E029688A0720D5A96878
:100A6000890840EA8100A860FFF738FF8046A8683F
:100A7000616800F00C00B0EB810F09D0FFF72EFF8A
:100A8000A0EB080041F289318842F0D303202BE02B
:100A9000306800F00700874204D200F027F801D048
:100AA000012021E02078410705D5AA68E06822F4FA
:100AB000E0520243AA602178080706D5A968206998
:100AC00021F4604141EAC001A96000F035FAAA684A
:100AD0001449154BC2F30312895CC84018601348CF
:100AE000006800F059FA0020BDE8F08137703168E5
:100AF00001F00701B94270470B480D4A00681368BE
:100B00000C49C3F3822206E00748094A00681368CB
:100B10000849C3F34232895CC8407047003C024038
:100B200000380240A8150008640000206000002082
:100B3000083802402C160008D3BBD9B1B2F5803F6B
:100B40005BD2022A1ED98C46B1FBF2F102FB11C323
:100B50001B0443EA1043B3FBF2FC02FB1C3380B2DC
:100B600040EA0343B3FBF2F002FB103240EA0C40D0
:100B700000237047022A05D98446B0FBF2F002FB3D
:100B800010C270474AB105D100F0010249085FEA7E
:100B90003000704700220023704700F01DBA0B00A0
:100BA0000200002100207047F7D300220023704785
:100BB000904271EB030CF2D370B5B1FA81F4B3FA41
:100BC00083F52C1BA340C4F1200532FA05F633430C
:100BD000A2405FF00046E64002E05B085FEA3202B6
:100BE000841A71EB030524BF204629467641F4D3CD
:100BF00002000B003000002170BD70B5B1FA81F425
:100C0000B2FA82F5C4F120046419B4F12006DAD3F3
:100C1000B2405FF00044F440002502E052085FEA71
:100C20003303C61A71EB020E24BF3046714664418D
:100C30006D41F3D302000B002000290070BD10B5F8
:100C4000044610460A460146204600F0C7F92046F1
:100C500010BD00002DE9F84F0D46002679497A4A6B
:100C60000F23044601202F68B04000EA07088045A2
:100C700040F0D5804FEA460C032707FA0CF76FEADD
:100C8000070E6F6807F00309B9F1010F1CBF07F0E9
:100C90000307022F12D1A768D5F80C900EEA0707B8
:100CA00009FA0CF949EA0707A760676827EA000014
:100CB0006F68C7F30017B74038436060B0002F7902
:100CC00007F00307032F21D0E768D5F808900EEA54
:100CD000070709FA0CF949EA0707E7602F7907F0D7
:100CE0000307022F12D1F70804EB870700F01C0955
:100CF000D7F820A003FA09FB2AEA0B0AD5F810B0AE
:100D00000BFA09F949EA0A09C7F8209027680EEAA0
:100D1000070E2F7907F0030707FA0CF747EA0E0CC6
:100D2000C4F800C06F6817F4403F78D04FF0000E51
:100D3000CDF800E04FEA960C176847F4804717603B
:100D400000F00C00D2F800E0404F0EF4804ECDF8D9
:100D500000E0DDF800E057F82C7003FA00FE27EA07
:100D60000E0E3B4FBC4208BF002722D0394FBC4279
:100D700008BF01271DD0384FBC4208BF022718D03A
:100D8000364FBC4208BF032713D0354FBC4208BFC3
:100D900004270ED0334FBC4208BF052709D0324F7D
:100DA000BC4208BF062704D0304FBC420CBF072707
:100DB000082707FA00F040EA0E00DFF890E04EF84E
:100DC0002C006FEA0800D1F808C06F6800EA0C0C2C
:100DD000FF0248BF48EA0C0CC1F808C0D1F80CC0AB
:100DE0006F6800EA0C0CBF0248BF48EA0C0CC1F85F
:100DF0000CC0D1F804C06F6800EA0C0CBF0348BFF8
:100E000048EA0C0CC1F804C0D1F800C000EA0C0C90
:100E10006868C00348BF48EA0C0CC1F800C0761CE3
:100E20000F2E7FF61FAFBDE8F18F02B90904816173
:100E30007047426901EA0203914341EA034181613B
:100E400070470000003C014044380240083801402F
:100E5000000002400004024000080240000C024072
:100E6000001002400014024000180240001C024022
:100E70000901020002D42A4881547047294B02F02C
:100E80000F021A4402F8041C7047274B19684FF6EA
:100E9000FF020002114000F4E060084323490843C8
:100EA0001860704770B5204B1C68C4F302230124FE
:100EB000C3F10705052D2EBF0F2504FA05F56D1E9C
:100EC0001E1D072E34BF0023DB1E2940994004FA63
:100ED00003F3BDE870405B1E1A401143C8E70000F1
:100EE000010007D4012200F01F01114B8A40400984
:100EF00043F82020704710B5401EB0F1807F01D329
:100F0000012010BD0B4C60600F214FF0FF30FFF748
:100F1000AFFF0021A16007202060002010BD00006D
:100F200000E400E018ED00E00CED00E00000FA0540
:100F300000E100E010E000E030B5144C606800F023
:100F40000C00042802D0082802D01DE0104830BD53
:100F5000226820680023410202F03F0204D5256880
:100F60000B49C5F3881003E020680A49C0F38810D4
:100F7000A1FB0001FFF7E0FD2168C1F30141491C1D
:100F80004900B0FBF1F030BD024830BD04380240EA
:100F900040787D010024F40038B50D4D0D4B2A78C2
:100FA00004464FF47A711868B1FBF2F2B0FBF2F02C
:100FB000FFF7A1FF50B9102C08D2002221464FF0B4
:100FC000FF30FFF76FFFAC60002032BD012032BD63
:100FD00058000020640000207047000062F30F22D8
:100FE00062F31F42401810F0030308D0C91A1FD340
:100FF000DB0748BF00F8012D28BF20F8022D1300A1
:1010000030B414461546103928BF20E93C00FAD800
:10101000490728BF20E90C0048BF40F8042D89008B
:1010200028BF20F8022D48BF00F8012D30BC7047C2
:10103000C91818BF00F8012DCB0728BF00F8012DF3
:10104000704700002DE9F843040016D02078DFF83F
:101050000063C10713D5B06800F00C00042807D066
:10106000B06800F00C0008283DD1706841023AD504
:101070003068810303D56068002800F0648120781F
:10108000B44F810719D5B06810F00C0F07D0B068C5
:1010900000F00C0008285BD17068410258D4306819
:1010A000810703D5E068012840F04D81316820694F
:1010B00021F0F80141EAC00131602178080779D5B3
:1010C0006069A549002868D001220A60FFF706FC84
:1010D0000546706F81076DD4FFF700FC401B0228A6
:1010E000F7D9032032E16068B0F5803F04D1306861
:1010F00040F48030306011E0B0F5A02F306806D1A8
:1011000040F480203060316841F4803105E020F403
:1011100080303060316821F480213160606858B1DE
:10112000FFF7DCFB054630688103A8D4FFF7D6FB48
:10113000401B6528F7D3D4E7FFF7D0FB054630689E
:1011400081039CD5FFF7CAFB401B6528F7D3C8E78E
:10115000E068A8B101213960FFF7C0FB054630689F
:10116000810705D4FFF7BAFB401B0228F7D9B8E77F
:101170003068216920F0F80040EAC10030609CE747
:101180003860FFF7ABFB05463168880795D5FFF758
:10119000A5FB401B0228F7D9A3E70860FFF79EFBD9
:1011A0000546706F810705D5FFF798FB401B0228A5
:1011B000F7D996E72078410760D5306C0025C1004B
:1011C0000BD4002000900125316C41F08051316436
:1011D000306C00F0805000900098DFF88081D8F8E3
:1011E0000000C10513D4D8F8000040F48070C8F89E
:1011F0000000FFF773FB8146D8F80000C10506D454
:10120000FFF76CFBA0EB09000228F5D969E7A0689D
:10121000012805D00528306F06D140F00400306762
:10122000306F40F0010005E0400840003067306F4B
:1012300020F00400306741F28938A06860B1FFF700
:101240004DFB8146306F810713D4FFF747FBA0EBBE
:1012500009004045F6D344E7FFF740FB8146306F75
:10126000810706D5FFF73AFBA0EB09004045F6D30E
:1012700037E71DB1306C20F080503064A069002841
:1012800063D0B16801F00C0108293AD002282AD1B4
:1012900000203866FFF722FB05463068810105D53E
:1012A000FFF71CFB401B0228F7D91AE7E069216A07
:1012B000626A0843A16A490840EA8210491E40EA6E
:1012C0000140E16A40EA0160706001203866FFF782
:1012D00005FB04463068810137D4FFF7FFFA001B95
:1012E0000228F7D9FDE600203866FFF7F7FA044632
:1012F0003068810129D5FFF7F1FA001B0228F7D9E0
:10130000EFE601281FD07068E26900F48001914285
:1013100002BF00F03F01226A914201BF47F6C0714F
:101320000140626AB1EB821F0DD1A26A520800F43B
:101330004031521EB1EB024F02BF00F07060E16A13
:10134000B0EB016F01D0012000E00020BDE8F28386
:101350000038024000004742800E474200700040C3
:1013600038B586B000F0A4F800F050F800F098F816
:1013700000200090444C4548454D016841F0010172
:101380000160026802F001020092002200990092BE
:101390004FF48051036843F008030360006800F0D5
:1013A0000800009000982046FFF73FFD4FF4805161
:1013B00001910122002103910491029201A920468A
:1013C000FFF748FC334828604FF4E1310C2000223D
:1013D00068616960AA60EA602A61AA61EA612846D8
:1013E000FEF7D2FE08B100F060F84FF480512046BD
:1013F000FFF71FFD64230F2205F148012846FEF781
:1014000002FF41F2883000F06DF8EEE780B592B04F
:101410003022002106A8FFF712FC00F041F800205E
:10142000009001231C48016841F0805101600021B7
:10143000006800F080500090009818480091026801
:1014400042F4804202600222006800F48040009072
:1014500006A8009906921021002209930A910C9285
:10146000FFF7F0FD08B172B6FEE70F2001900021F2
:10147000029103910491059101A8FFF7B7FA08B111
:1014800072B6FEE713B000BD000C024030380240D7
:10149000000000200044004040380240007000403E
:1014A0001422002101A8FFF7CABB72B6FEE70000B4
:1014B00080B50B48016841F400710160026842F494
:1014C00080620260016841F4807101600320FFF7CF
:1014D000DCFC0F20FFF760FDFFF7A4F9002002BD40
:1014E000003C024038B50446FFF7F8F914F1010F4B
:1014F000054602D0044801786418FFF7EFF9401B55
:10150000A042FAD331BD00BF5800002010B50749F2
:1015100079441831064C7C44163404E00A68081DEE
:10152000114488470146A142F8D110BD2C000000AB
:10153000380000004EF68851CEF20001086840F4F1
:1015400070000860BFF34F8FBFF36F8F4FF00170D3
:10155000E1EE100A704700005BF4FFFF1802000084
:101560003C00000000000020FEE7FEE7FEE7FEE78B
:10157000FEE770477047704700F006B80148FEF775
:10158000A2BE0000000000200248416802788A18CC
:1015900042607047580000200248016841F4700121
:1015A0000160704788ED00E00000000000000000CE
:1015B000010203040607080900F00DF8002801D015
:1015C000FFF7A4FFAFF300800020AFF30080FFF728
:1015D000C7FE00F002F80120704700F001B80000DB
:1015E0000746384600F002F8FBE7000080B5AFF38D
:1015F0000080024A11001820ABBEFBE72600020063
:101600000548014603B4684680F30988AFF30080BB
:10161000FFF790FFFFF7D0FFA5EDF5FE01488047EB
:101620000148004799150008011600080000000055
:1016300001020304FFF7FEBFFFF7FEBFFFF7FEBF87
:10164000FFF7FEBFFFF7FEBFFFF7FEBFFFF7FEBFCE
:10165000FFF7FEBFFFF7FEBFFFF7FEBFFFF7FEBFBE
:10166000FFF7FEBFFFF7FEBFFFF7FEBFFFF7FEBFAE
:10167000FFF7FEBFFFF7FEBFFFF7FEBFFFF7FEBF9E
:10168000FFF7FEBFFFF7FEBFFFF7FEBFFFF7FEBF8E
:10169000FFF7FEBFFFF7FEBFFFF7FEBFFFF7FEBF7E
:1016A000FFF7FEBFFFF7FEBFFFF7FEBFFFF7FEBF6E
:1016B000FFF7FEBFFFF7FEBFFFF7FEBFFFF7FEBF5E
:1016C000FFF7FEBFFFF7FEBFFFF7FEBFFFF7FEBF4E
:1016D000FFF7FEBFFFF7FEBFFFF7FEBFFFF7FEBF3E
:1016E000FFF7FEBFFFF7FEBFFFF7FEBFFFF7FEBF2E
:1016F000FFF7FEBFFFF7FEBFFFF7FEBFFFF7FEBF1E
:10170000FFF7FEBFFFF7FEBFFFF7FEBFFFF7FEBF0D
:10171000FFF7FEBFFFF7FEBFFFF7FEBFFFF7FEBFFD
:10172000FFF7FEBFFFF7FEBFFFF7FEBFFFF7FEBFED
:10173000FFF7FEBFFFF7FEBFFFF7FEBFFFF7FEBFDD
:10174000FFF7FEBFFFF7FEBFFFF7FEBFFFF7FEBFCD
:10175000FFF7FEBFFFF7FEBFFFF7FEBFFFF7FEBFBD
:10176000FFF7FEBFFFF7FEBFFFF7FEBFFFF7FEBFAD
:10177000FFF7FEBFB8001048656C6C6F2C20576FE8
:10178000726C64210D0A0001F9000010FC000224B3
:02179000F40063
:0400000508001601D8
:00000001FF
